:100000000C942A000C94AA000C94C0000C94D60006
:100010000C943C000C943C000C943C000C949C0907
:100020000C943C000C943C000C9429080C943C006B
:100030000C943C000C943C000C943C000C943C0050
:100040000C943C000C943C000C943C000C943C0040
:100050000C943C0011241FBECFE5D8E0DEBFCDBF1D
:1000600010E0A0E6B0E001C01D92AB3AB107E1F7A5
:100070000E946A060C94EE090C9400008130E1F0B5
:10008000813078F485B7826085BF85B7816085BF90
:100090008BB780648BBF78947093810060938000ED
:1000A0000895823081F0833099F785B78D7F85BFC1
:1000B00085B78E7F85BFECCF85B7826085BF85B75A
:1000C0008E7F85BFE5CF85B78D7F85BF85B7816082
:1000D00085BFDECF8130E1F0813078F485B788606C
:1000E00085BF85B7846085BF8BB780688BBF7894E8
:1000F00070937F0060937E000895823081F083309A
:1001000099F785B7877F85BF85B78B7F85BFECCF94
:1001100085B7886085BF85B78B7F85BFE5CF85B7FD
:10012000877F85BF85B7846085BFDECF882361F474
:1001300084B7806484BF8BB780628BBF78947093E0
:100140007D0060937C0008958130A9F784B78F7B90
:1001500084BFF1CF1F920F920FB60F9211248F938D
:10016000EF93FF93E0918000F091810081E0808324
:10017000FF91EF918F910F900FBE0F901F901895E8
:100180001F920F920FB60F9211248F93EF93FF934C
:10019000E0917E00F0917F0081E08083FF91EF91FC
:1001A0008F910F900FBE0F901F9018951F920F9276
:1001B0000FB60F9211248F93EF93FF93E0917C0081
:1001C000F0917D0081E08083FF91EF918F910F90FE
:1001D0000FBE0F901F901895823469F1833428F078
:1001E0008334D1F18434A9F008958134E9F74130A2
:1001F00009F464C0413008F092C02AB381E090E075
:1002000002C0880F991F6A95E2F7809582238ABB06
:100210000895413009F447C0413008F06DC021B362
:1002200081E090E002C0880F991F6A95E2F78095FF
:10023000822381BB0895413059F1413008F049C013
:1002400027B381E090E002C0880F991F6A95E2F71A
:100250008095822387BB0895413079F0413008F0C2
:1002600071C024B381E090E002C0880F991F6A95A5
:10027000E2F78095822384BB089524B381E090E067
:1002800002C0880F991F6A95E2F7282B24BB0895B6
:1002900027B381E090E002C0880F991F6A95E2F7CA
:1002A000282B27BB089521B381E090E002C0880F7E
:1002B000991F6A95E2F7282B21BB08952AB381E0A4
:1002C00090E002C0880F991F6A95E2F7282B2ABB9D
:1002D0000895423009F088CF37B381E090E002C042
:1002E000880F991F6A95E2F7282F2095232327BBB3
:1002F00028B3822B88BB0895423009F075CF31B303
:1003000081E090E002C0880F991F6A95E2F7282FDC
:100310002095232321BB22B3822B82BB0895423038
:1003200009F062CF3AB381E090E002C0880F991FD4
:100330006A95E2F7282F209523232ABB2BB3822B23
:100340008BBB0895423009F04FCF34B381E090E089
:1003500002C0880F991F6A95E2F7282F2095232362
:1003600024BB25B3822B85BB0895823439F18334B5
:1003700028F0833489F1843491F008958134E9F7C9
:10038000442309F061C02BB381E090E002C0880FE4
:10039000991F6A95E2F7809582238BBB08954423C9
:1003A00009F044C022B381E090E002C0880F991F99
:1003B0006A95E2F78095822382BB0895442341F534
:1003C00028B381E090E002C0880F991F6A95E2F798
:1003D0008095822388BB0895442361F425B381E08E
:1003E00090E002C0880F991F6A95E2F780958223FA
:1003F00085BB0895413009F0C0CF25B381E090E07E
:1004000002C0880F991F6A95E2F7282B25BB089533
:10041000413009F0B2CF28B381E090E002C0880FEC
:10042000991F6A95E2F7282B28BB0895413009F0FF
:10043000A4CF22B381E090E002C0880F991F6A9593
:10044000E2F7282B22BB0895413009F096CF2BB359
:1004500081E090E002C0880F991F6A95E2F7282B8F
:100460002BBB08958234F9F0833428F0833431F1C2
:10047000843471F008958134E9F72BB381E090E082
:1004800002C0880F991F6A95E2F728272BBB0895B1
:1004900022B381E090E002C0880F991F6A95E2F7CD
:1004A000282722BB089528B381E090E002C0880F7E
:1004B000991F6A95E2F7282728BB089525B381E0A4
:1004C00090E002C0880F991F6A95E2F7282725BBA4
:1004D0000895823409F1833438F0833441F184344F
:1004E00081F020E0822F08958134D9F729B381E08B
:1004F00090E002C0880F991F6A95E2F72823822FA7
:10050000089520B381E090E002C0880F991F6A959A
:10051000E2F72823822F089526B381E090E002C0FD
:10052000880F991F6A95E2F72823822F089523B335
:1005300081E090E002C0880F991F6A95E2F72823B6
:10054000822F0895CF92DF92EF92FF921F93CF9365
:10055000DF93EC01E0916000F0916100A781B0852C
:100560009C918285809589238C93E0916000F09125
:1005700061008081882309F45FC010E091E0C92EFA
:10058000D12C80EAE82E8FE0F82E1FC0E0916000A9
:10059000F09161008385648541E00E94B501C70147
:1005A0000197F1F7E0916000F0916100A781B085BB
:1005B0009C918285809589238C931F5FE0916000D8
:1005C000F091610080811817B8F50780F085E02D63
:1005D0002081C601012E02C0880F991F0A94E2F7FC
:1005E000282B2083E0916000F0916100A581B68105
:1005F0009C918185809589238C93FE01E10FF11DEB
:1006000080818F708083E0916000F09161000580AF
:10061000F681E02D9081892B8083113019F0133001
:1006200009F0B4CFE0916000F091610083856485AA
:1006300040E00E94B501B3CFDF91CF911F91FF90B1
:10064000EF90DF90CF900895FC019093610080932C
:100650006000A181B2818C919185892B8C93A381BB
:10066000B4818C91E0916000F09161009285892BBA
:100670008C93E0916000F09161008385648541E096
:100680000E94EC000895CF93DF93EC01888169818B
:100690000E946902882339F48A81882331F080E03E
:1006A000DF91CF9108951A82FACF81E08A83DF919A
:1006B000CF910895FC01608341831282138222301E
:1006C00031F0862F642F40E00E94EC000895862FC1
:1006D000642F42E00E94EC000895809162008B3309
:1006E000B0F0809163008B3350F0809164008F5F95
:1006F00080936400109263001092620008958091CC
:1007000063008F5F80936300109262000895809170
:1007100062008F5F80936200089580916200882359
:10072000A9F0809162008150809362008091620004
:10073000882359F480916300882339F48091640000
:10074000882319F481E08093680008958091630004
:10075000882349F0809163008150809363008BE38C
:1007600080936200E3CF80916400882359F08091E8
:1007700064008150809364008BE3809362008093D7
:100780006300D4CF81E080936800D0CF12BE109276
:100790006400E3E6F0E01082129208958091630015
:1007A0008B3340F0809164008F5F809364001092DF
:1007B00063000895809163008F5F809363000895C4
:1007C00080916300882369F480916400882341F05C
:1007D000809164008150809364008BE38093630078
:1007E0000895809163008150809363000895809103
:1007F0006400833618F010926400089580916400BC
:100800008F5F80936400089580916400882329F0AD
:1008100080916400815080936400089526E02093C5
:1008200092008FE080939B008FE380939C0084E391
:1008300090E090939400809393008AE390E09093EB
:100840009600809395008BE390E090939A008093BC
:10085000990085E390E0909398008093970020930F
:100860009E0084E480939D0082E990E00E9424032E
:10087000089580916800882331F484E460E040E0CA
:100880000E94B501089582E08093700084E460E0E6
:1008900041E00E94B5010895809165008823D9F553
:1008A00080916600882361F080917000823011F0A1
:1008B0008093710082E0809370001092660008952A
:1008C00080916700882389F58FE990E00E944303B7
:1008D000882301F180917000882309F44DC0813094
:1008E00089F18230B9F480917100882309F456C0EF
:1008F000813081F4109271008DE693E00E94CF095F
:1009000084E464E041E00E94B50184E465E040E0F5
:100910000E94B501089512BE109264001092630007
:10092000109262001092650008950E94DE091092F4
:100930006700809168008823B1F4809171008093F2
:1009400070000895109270008DE693E00E94CF0928
:1009500084E464E041E00E94B50184E465E040E0A5
:100960000E94B501089510926800109270008DE603
:1009700093E00E94CF09089581E0809370008DE894
:1009800093E00E94CF0984E464E040E00E94B50156
:1009900084E465E041E00E94B501089581E0809320
:1009A0007100EDCF8FE990E062E447E022E00E9421
:1009B0005A0387EA90E062E446E022E00E945A038C
:1009C00082E890E062E445E022E00E945A038EE86B
:1009D00090E062E444E022E00E945A0383EA90E05F
:1009E00062E443E022E00E945A0386E890E062E479
:1009F00041E022E00E945A038AE890E062E440E08D
:100A000022E00E945A03089581E065E670E00E94AA
:100A10003E0081E066E670E00E946A0081E067E6E1
:100A200070E00E949600089584E460E041E00E9436
:100A3000EC0081E466E041E00E94EC0084E462E0C6
:100A400042E00E94EC0082E462E042E00E94EC009E
:100A500084E463E042E00E94EC000895A4E6B0E084
:100A6000809164006AE00E94E20980936A008091AC
:100A700064000E94E20990936B00FD0182910E9444
:100A8000E20980936C0080810E94E20990936D00DE
:100A900012978C910E94E20980936E008C910E94C3
:100AA000E20990936F008AE690E00E94A202089506
:100AB000809162008B33B0F0809163008B3350F0F3
:100AC000809164008F5F80936400109263001092A5
:100AD00062000895809163008F5F8093630010929D
:100AE00062000895809162008F5F80936200089594
:100AF000809162008823A9F08091620081508093E8
:100B0000620080916200882359F4809163008823F9
:100B100039F480916400882319F481E0809368009F
:100B2000089580916300882349F08091630081508B
:100B3000809363008BE380936200E3CF8091640035
:100B4000882359F0809164008150809364008BE386
:100B50008093620080936300D4CF81E0809368002B
:100B6000D0CF87EA90E00E944303882309F048C071
:100B700082E890E00E944303882301F583EA90E035
:100B80000E944303882309F053C08EE890E00E943E
:100B90004303882309F06FC086E890E00E94430376
:100BA000882309F487C080916400833608F07FC0F1
:100BB000809164008F5F809364000895809162004B
:100BC000882309F046C080916300882309F456C049
:100BD000809163008150809363008BE38093620077
:100BE000809162008823F1F5809163008823D1F51C
:100BF000809164008823B1F581E0809368000895B6
:100C0000809162008B3370F0809163008B3358F1D8
:100C1000809164008F5F8093640010926300109253
:100C200062000895809162008F5F80936200089552
:100C300080916300882389F580916400882391F076
:100C4000809164008150809364008BE38093630003
:100C500008958091620081508093620080916200CB
:100C6000882311F20895809163008F5F8093630061
:100C70001092620008950E94CE030895809164004E
:100C8000882389F0809164008150809364008BE315
:100C90008093620080936300A3CF809163008150B2
:100CA00080936300089581E08093680099CF10924B
:100CB000640008958AE890E00E944303882391F23B
:100CC00080916400882371F2809164008150809348
:100CD000640008951F9389E09DE30E94C3098AEF91
:100CE00090E00E94980884E460E041E00E94EC00FB
:100CF00081E466E041E00E94EC0084E462E042E0CE
:100D00000E94EC0082E462E042E00E94EC0084E495
:100D100063E042E00E94EC0026E0209392008FE026
:100D200080939B008FE380939C0084E390E09093FA
:100D30009400809393008AE390E0909396008093D0
:100D400095008BE390E090939A008093990085E35F
:100D500090E0909398008093970020939E0084E405
:100D600080939D0082E990E00E94240381E065E683
:100D700070E00E943E0081E066E670E00E946A003A
:100D800081E067E670E00E9496008FE990E062E4FF
:100D900047E022E00E945A0387EA90E062E446E0DE
:100DA00022E00E945A0382E890E062E445E022E0FB
:100DB0000E945A038EE890E062E444E022E00E9440
:100DC0005A0383EA90E062E443E022E00E945A037F
:100DD00086E890E062E441E022E00E945A038AE85B
:100DE00090E062E440E022E00E945A0312BE1092BA
:100DF0006400109263001092620012E00E944C04A2
:100E000080916800882309F050C084E460E040E0ED
:100E10000E94B50180917000813009F452C0813088
:100E200008F05BC08DE693E00E94CF0984E464E0A3
:100E300041E00E94B50184E465E040E00E94B50114
:100E400081E466E041E00E94B501809164006AE0BF
:100E50000E94E20980936A00809164000E94E20986
:100E600090936B00809163000E94E20980936C0074
:100E7000809163000E94E20990936D00809162006E
:100E80000E94E20980936E00809162000E94E20954
:100E900090936F008AE690E00E94A2020E944C04A8
:100EA00080916800882309F4B0CF1093700084E427
:100EB00060E041E00E94B50180917000813009F04E
:100EC000AECF8DE893E00E94CF0984E465E041E075
:100ED0000E94B50184E464E0B0CF823009F08ECF87
:100EE0000E94D40981E466E040E00E94B50180914F
:100EF00064006AE00E94E20980936A0080916400C5
:100F00000E94E20990936B00809163000E94E209C5
:100F100080936C00809163000E94E20990936D00C1
:100F2000809162000E94E20980936E0080916200CD
:100F30000E94E20990936F008AE690E00E94A2026C
:100F40000E94B1055BCF80917000813009F475C0BB
:100F50008130E8F58DE693E00E94CF0984E464E0F7
:100F600041E00E94B50184E465E040E00E94B501E3
:100F700081E466E041E00E94B501809164006AE08E
:100F80000E94E20980936A00809164000E94E20955
:100F900090936B00809163000E94E20980936C0043
:100FA000809163000E94E20990936D00809162003D
:100FB0000E94E20980936E00809162000E94E20923
:100FC00090936F008AE690E00E94A202089582301A
:100FD00009F008950E94D40981E466E040E00E948F
:100FE000B501809164006AE00E94E20980936A0082
:100FF000809164000E94E20990936B0080916300ED
:101000000E94E20980936C00809163000E94E209D3
:1010100090936D00809162000E94E20980936E00BF
:10102000809162000E94E20990936F008AE690E04E
:101030000E94A2020E94B10508958DE893E00E94EB
:10104000CF0984E465E041E00E94B50184E464E0F6
:101050008CCF1F920F920FB60F9211241F932F93D4
:101060003F934F935F936F937F938F939F93AF9330
:10107000BF93EF93FF9380917200209173003091A2
:1010800074004091750060917600E0917700A09126
:10109000780010917900B82FBF5F91E0B81708F081
:1010A00090E0F92FF20F81E0F21708F080E0782F3E
:1010B000730F81E0731708F080E0582F540F81E020
:1010C000541708F080E0382F360F81E0361708F00B
:1010D00080E0282F2E0F81E02E1708F080E0982F57
:1010E0009A0F81E09A1708F080E0810FB0937200A8
:1010F000F0937300709374005093750030937600F2
:10110000209377009093780080937900FF91EF917E
:10111000BF91AF919F918F917F916F915F914F910F
:101120003F912F911F910F900FBE0F901F90189518
:10113000789412BE8CBF89B7826089BF8BE883BF69
:101140000895209172003091730040917400509185
:101150007500609176007091770080917800909191
:10116000790008952F923F924F925F926F927F92F3
:101170008F929F92AF92BF92CF92DF92EF92FF92A7
:101180000F931F93DF93CF93CDB7DEB728970FB69A
:10119000F894DEBF0FBECDBF322E232E642E552E07
:1011A000462E772E4C0178948091720090917300B6
:1011B0002091740030917500409176005091770035
:1011C000609178007091790089839A832B833C83A6
:1011D0004D835E836F837887909172004091730096
:1011E0005091740070917500F0917600B091770085
:1011F000F0907800B090790089813A816B81EC8120
:101200001D81EE80DF80C884A92EA81A21E09A15DE
:1012100008F020E0842F831B91E0481708F090E04D
:10122000082F021B21E0801708F020E0922B852F69
:10123000861B21E0581708F020E0A82FA91B91E099
:101240008A1708F090E0292B872F8E1B91E07817E2
:1012500008F090E0682F621B21E0861708F020E07C
:10126000922B8F2F811B21E0F81708F020E0582FD8
:10127000591B91E0851708F090E0292B8B2F8E19D0
:1012800031E0B81708F030E0482F421B91E0841796
:1012900008F090E0392B8F2D8D1991E0F81608F0A9
:1012A00090E0282F231B322F21E0831708F020E045
:1012B000922B8B2D8C19891B9816C8F428960FB683
:1012C000F894DEBF0FBECDBFCF91DF911F910F917C
:1012D000FF90EF90DF90CF90BF90AF909F908F9056
:1012E0007F906F905F904F903F902F900895891559
:1012F00009F072CF831610F3381509F06DCF74160C
:10130000E8F2471509F068CF4516C0F2541509F008
:1013100063CF561698F2651509F05ECF6A1670F223
:10132000A61509F059CF201648F2021509F054CF3E
:101330003A1408F051CFC2CF1F920F920FB60F92FE
:1013400011242F933F934F935F936F937F938F93CA
:101350009F93AF93BF93EF93FF93E0917A00F09147
:101360007B000995FF91EF91BF91AF919F918F9174
:101370007F916F915F914F913F912F910F900FBE91
:101380000F901F90189578941DBC1CBC9BBD8ABD06
:1013900089B7806189BF8EB58D608EBD08959093A9
:1013A0007B0080937A0008958EB58E7F8EBD8EB5BA
:1013B0008D7F8EBD8EB58B7F8EBD08958EB58D6071
:1013C0008EBD0895991B79E004C0991F961708F007
:1013D000961B881F7A95C9F780950895F894FFCFDA
:00000001FF
